{
  "contractName": "FileStore",
  "abi": [
    {
      "constant": true,
      "inputs": [],
      "name": "totalFiles",
      "outputs": [
        {
          "name": "",
          "type": "uint256"
        }
      ],
      "payable": false,
      "stateMutability": "view",
      "type": "function"
    },
    {
      "payable": false,
      "stateMutability": "nonpayable",
      "type": "fallback"
    },
    {
      "anonymous": false,
      "inputs": [
        {
          "indexed": true,
          "name": "owner",
          "type": "address"
        },
        {
          "indexed": false,
          "name": "fileId",
          "type": "uint256"
        },
        {
          "indexed": false,
          "name": "name",
          "type": "string"
        },
        {
          "indexed": false,
          "name": "ipfshash",
          "type": "string"
        }
      ],
      "name": "FileUploaded",
      "type": "event"
    },
    {
      "constant": false,
      "inputs": [
        {
          "name": "_ipfs",
          "type": "string"
        },
        {
          "name": "_name",
          "type": "string"
        }
      ],
      "name": "addFile",
      "outputs": [
        {
          "name": "",
          "type": "uint256"
        }
      ],
      "payable": false,
      "stateMutability": "nonpayable",
      "type": "function"
    },
    {
      "constant": true,
      "inputs": [
        {
          "name": "_ipfs",
          "type": "string"
        }
      ],
      "name": "getFileOwner",
      "outputs": [
        {
          "name": "",
          "type": "address"
        }
      ],
      "payable": false,
      "stateMutability": "view",
      "type": "function"
    },
    {
      "constant": true,
      "inputs": [
        {
          "name": "_addr",
          "type": "address"
        },
        {
          "name": "_id",
          "type": "uint256"
        }
      ],
      "name": "getUserFile",
      "outputs": [
        {
          "name": "",
          "type": "bytes32"
        },
        {
          "name": "",
          "type": "bytes32"
        }
      ],
      "payable": false,
      "stateMutability": "view",
      "type": "function"
    },
    {
      "constant": true,
      "inputs": [
        {
          "name": "_addr",
          "type": "address"
        }
      ],
      "name": "getTotalUserFiles",
      "outputs": [
        {
          "name": "",
          "type": "uint256"
        }
      ],
      "payable": false,
      "stateMutability": "view",
      "type": "function"
    }
  ],
  "bytecode": "0x60806040526000805534801561001457600080fd5b50610b9c806100246000396000f30060806040526004361061006d576000357c0100000000000000000000000000000000000000000000000000000000900463ffffffff168063248bfc3b1461007f57806338fa8f581461014257806392cf0557146101eb578063af2f8b1e14610216578063c70862751461026d575b34801561007957600080fd5b50600080fd5b34801561008b57600080fd5b5061012c600480360381019080803590602001908201803590602001908080601f0160208091040260200160405190810160405280939291908181526020018383808284378201915050505050509192919290803590602001908201803590602001908080601f01602080910402602001604051908101604052809392919081815260200183838082843782019150505050505091929192905050506102e5565b6040518082815260200191505060405180910390f35b34801561014e57600080fd5b506101a9600480360381019080803590602001908201803590602001908080601f01602080910402602001604051908101604052809392919081815260200183838082843782019150505050505091929192905050506107c5565b604051808273ffffffffffffffffffffffffffffffffffffffff1673ffffffffffffffffffffffffffffffffffffffff16815260200191505060405180910390f35b3480156101f757600080fd5b5061020061099d565b6040518082815260200191505060405180910390f35b34801561022257600080fd5b50610257600480360381019080803573ffffffffffffffffffffffffffffffffffffffff1690602001909291905050506109a3565b6040518082815260200191505060405180910390f35b34801561027957600080fd5b506102b8600480360381019080803573ffffffffffffffffffffffffffffffffffffffff169060200190929190803590602001909291905050506109f4565b60405180836000191660001916815260200182600019166000191681526020019250505060405180910390f35b60008060008073__FileStoreLib__________________________635b6beeb9876040518263ffffffff167c01000000000000000000000000000000000000000000000000000000000281526004018080602001828103825283818151815260200191508051906020019080838360005b83811015610371578082015181840152602081019050610356565b50505050905090810190601f16801561039e5780820380516001836020036101000a031916815260200191505b509250505060206040518083038186803b1580156103bb57600080fd5b505af41580156103cf573d6000803e3d6000fd5b505050506040513d60208110156103e557600080fd5b8101908080519060200190929190505050600060026000836000191660001916815260200190815260200160002060020160009054906101000a900473ffffffffffffffffffffffffffffffffffffffff1673ffffffffffffffffffffffffffffffffffffffff1614151561045957600080fd5b73__FileStoreLib__________________________635b6beeb9886040518263ffffffff167c01000000000000000000000000000000000000000000000000000000000281526004018080602001828103825283818151815260200191508051906020019080838360005b838110156104df5780820151818401526020810190506104c4565b50505050905090810190601f16801561050c5780820380516001836020036101000a031916815260200191505b509250505060206040518083038186803b15801561052957600080fd5b505af415801561053d573d6000803e3d6000fd5b505050506040513d602081101561055357600080fd5b8101908080519060200190929190505050935061057c6001600054610b1490919063ffffffff16565b600081905550600160003373ffffffffffffffffffffffffffffffffffffffff1673ffffffffffffffffffffffffffffffffffffffff168152602001908152602001600020805490509250600160003373ffffffffffffffffffffffffffffffffffffffff1673ffffffffffffffffffffffffffffffffffffffff168152602001908152602001600020849080600181540180825580915050906001820390600052602060002001600090919290919091509060001916905550600260008560001916600019168152602001908152602001600020915073__FileStoreLib__________________________6378e2e93983858a8a6040518563ffffffff167c0100000000000000000000000000000000000000000000000000000000028152600401808581526020018481526020018060200180602001838103835285818151815260200191508051906020019080838360005b838110156106ec5780820151818401526020810190506106d1565b50505050905090810190601f1680156107195780820380516001836020036101000a031916815260200191505b50838103825284818151815260200191508051906020019080838360005b83811015610752578082015181840152602081019050610737565b50505050905090810190601f16801561077f5780820380516001836020036101000a031916815260200191505b50965050505050505060006040518083038186803b1580156107a057600080fd5b505af41580156107b4573d6000803e3d6000fd5b505050508294505050505092915050565b60008073__FileStoreLib__________________________635b6beeb9846040518263ffffffff167c01000000000000000000000000000000000000000000000000000000000281526004018080602001828103825283818151815260200191508051906020019080838360005b8381101561084e578082015181840152602081019050610833565b50505050905090810190601f16801561087b5780820380516001836020036101000a031916815260200191505b509250505060206040518083038186803b15801561089857600080fd5b505af41580156108ac573d6000803e3d6000fd5b505050506040513d60208110156108c257600080fd5b8101908080519060200190929190505050905073__FileStoreLib__________________________630a34a7d36002600084600019166000191681526020019081526020016000206040518263ffffffff167c01000000000000000000000000000000000000000000000000000000000281526004018082815260200191505060206040518083038186803b15801561095a57600080fd5b505af415801561096e573d6000803e3d6000fd5b505050506040513d602081101561098457600080fd5b8101908080519060200190929190505050915050919050565b60005481565b600080600160008473ffffffffffffffffffffffffffffffffffffffff1673ffffffffffffffffffffffffffffffffffffffff16815260200190815260200160002080549050905080915050919050565b6000806000610a01610b32565b600160008773ffffffffffffffffffffffffffffffffffffffff1673ffffffffffffffffffffffffffffffffffffffff16815260200190815260200160002085815481101515610a4d57fe5b90600052602060002001549150600260008360001916600019168152602001908152602001600020606060405190810160405290816000820154600019166000191681526020016001820154600019166000191681526020016002820160009054906101000a900473ffffffffffffffffffffffffffffffffffffffff1673ffffffffffffffffffffffffffffffffffffffff1673ffffffffffffffffffffffffffffffffffffffff16815250509050806000015181602001519350935050509250929050565b6000808284019050838110151515610b2857fe5b8091505092915050565b6060604051908101604052806000801916815260200160008019168152602001600073ffffffffffffffffffffffffffffffffffffffff16815250905600a165627a7a72305820a0bac1c9d74e0f5b845ba4d9b81e8264006904c9ee74fa0fffa1f703db46a89a0029",
  "source": "pragma solidity ^0.4.17;\n\nimport \"./SafeMath.sol\";\nimport \"./FileStoreLib.sol\";\n\n/** @title FileStore.\n  * @dev The FileStore Contract refer some IPFS hash to an wallet.\n  * An IPFS hash should not be able to be inserted in the File struct when it already has an owner.\n  * This contract should be the most simpliest possible and does not have an owner.\n  */\n\n\ncontract FileStore {\n    // -------- Variables ----------- //\n    uint256 public totalFiles = 0;\n    using SafeMath for uint256;\n\n    mapping(address => bytes32[]) internal userFiles;\n    mapping(bytes32 => FileStoreLib.File) internal files;\n\n    // ---------- Events --------------- //\n\n    event FileUploaded(address indexed owner,uint fileId,string name,string ipfshash);\n\n  // ----------- Functions ----------- //\n    // Modifiers //\n    /**\n      * @dev Throws if the hash to be uploaded already has an owner.\n      */\n    modifier hasNotOwner(bytes32 _hash){\n\n        require(files[_hash].owner == 0);\n        _;\n    }\n\n\n\n    /** @dev Allow an wallet to refer some IPFS hash to itself \n      * @param _ipfs is the ipfs hash generated when adding file in IPFS.\n      * @param _name is a string that user has used to name the content in IPFS.\n      * @return uint that is the fileId for the wallet that called the function\n      */\n\n    function addFile(string _ipfs,string _name)\n             public\n             hasNotOwner(FileStoreLib.getHash(_ipfs))\n             returns(uint){\n        bytes32 fhash = FileStoreLib.getHash(_ipfs);\n        totalFiles = totalFiles.add(1);\n        uint idFile = userFiles[msg.sender].length;\n        userFiles[msg.sender].push(fhash);\n        FileStoreLib.File storage f = files[fhash];\n        FileStoreLib.addHash(f,idFile,_ipfs,_name);\n        return(idFile);\n    }\n\n\n\n    /** @dev Get the owner of some file\n      * @param _ipfs IPFS hash generated when adding file in IPFS.\n      * @return address File owner\n      */\n\n    function getFileOwner(string _ipfs) public view returns(address){\n      bytes32 fhash = FileStoreLib.getHash(_ipfs);\n      return(FileStoreLib.getFileOwner(files[fhash]));\n    }\n\n    /** @dev Get File atributes ipfs and name\n      * @param _addr Owner of the file\n      * @param _id File id \n      * @return bytes32 File ipfs hash \n      * @return bytes32 File name hash \n      */\n\n    function getUserFile(address _addr,uint256 _id) public view returns(bytes32,bytes32){\n      bytes32 fileHash = userFiles[_addr][_id];\n      FileStoreLib.File memory f = files[fileHash];\n      return(f.ipfs,f.name);\n    }\n\n    /** @dev Return total files added by an wallet\n      * @param _addr Owner of the files\n      * @return uint Total files added by the wallet\n      */\n\n    function getTotalUserFiles(address _addr) public view returns(uint256){\n      uint256 total = userFiles[_addr].length;\n      return(total);\n    }\n    \n\n    /** @dev Fallback function to return ether in case of sending ether to this contract\n      */\n\n    function() public {\n        revert();\n    }\n\n}\n\n\n",
  "sourcePath": "/home/henrique/ethereum/final_project/contracts/FileStore.sol",
  "compiler": {
    "name": "solc",
    "version": "0.4.24+commit.e67f0147.Emscripten.clang"
  },
  "schemaVersion": "2.0.1",
  "updatedAt": "2019-01-16T21:53:27.806Z"
}