{
  "contractName": "FileStore2",
  "abi": [
    {
      "constant": true,
      "inputs": [],
      "name": "totalFiles",
      "outputs": [
        {
          "name": "",
          "type": "uint256"
        }
      ],
      "payable": false,
      "stateMutability": "view",
      "type": "function"
    },
    {
      "constant": false,
      "inputs": [
        {
          "name": "_ipfs",
          "type": "string"
        },
        {
          "name": "_name",
          "type": "string"
        }
      ],
      "name": "addFile",
      "outputs": [
        {
          "name": "",
          "type": "uint256"
        }
      ],
      "payable": false,
      "stateMutability": "nonpayable",
      "type": "function"
    },
    {
      "constant": true,
      "inputs": [
        {
          "name": "_ipfs",
          "type": "string"
        }
      ],
      "name": "getFileOwner",
      "outputs": [
        {
          "name": "",
          "type": "address"
        }
      ],
      "payable": false,
      "stateMutability": "view",
      "type": "function"
    },
    {
      "constant": true,
      "inputs": [
        {
          "name": "_addr",
          "type": "address"
        },
        {
          "name": "_id",
          "type": "uint256"
        }
      ],
      "name": "getUserFile",
      "outputs": [
        {
          "name": "",
          "type": "bytes32"
        },
        {
          "name": "",
          "type": "bytes32"
        }
      ],
      "payable": false,
      "stateMutability": "view",
      "type": "function"
    },
    {
      "constant": true,
      "inputs": [
        {
          "name": "_addr",
          "type": "address"
        }
      ],
      "name": "getTotalUserFiles",
      "outputs": [
        {
          "name": "",
          "type": "uint256"
        }
      ],
      "payable": false,
      "stateMutability": "view",
      "type": "function"
    }
  ],
  "bytecode": "0x60806040526000805534801561001457600080fd5b50610b8f806100246000396000f30060806040526004361061006d576000357c0100000000000000000000000000000000000000000000000000000000900463ffffffff168063248bfc3b1461007257806338fa8f581461013557806392cf0557146101de578063af2f8b1e14610209578063c708627514610260575b600080fd5b34801561007e57600080fd5b5061011f600480360381019080803590602001908201803590602001908080601f0160208091040260200160405190810160405280939291908181526020018383808284378201915050505050509192919290803590602001908201803590602001908080601f01602080910402602001604051908101604052809392919081815260200183838082843782019150505050505091929192905050506102d8565b6040518082815260200191505060405180910390f35b34801561014157600080fd5b5061019c600480360381019080803590602001908201803590602001908080601f01602080910402602001604051908101604052809392919081815260200183838082843782019150505050505091929192905050506107b8565b604051808273ffffffffffffffffffffffffffffffffffffffff1673ffffffffffffffffffffffffffffffffffffffff16815260200191505060405180910390f35b3480156101ea57600080fd5b506101f3610990565b6040518082815260200191505060405180910390f35b34801561021557600080fd5b5061024a600480360381019080803573ffffffffffffffffffffffffffffffffffffffff169060200190929190505050610996565b6040518082815260200191505060405180910390f35b34801561026c57600080fd5b506102ab600480360381019080803573ffffffffffffffffffffffffffffffffffffffff169060200190929190803590602001909291905050506109e7565b60405180836000191660001916815260200182600019166000191681526020019250505060405180910390f35b60008060008073__FileStoreLib__________________________635b6beeb9876040518263ffffffff167c01000000000000000000000000000000000000000000000000000000000281526004018080602001828103825283818151815260200191508051906020019080838360005b83811015610364578082015181840152602081019050610349565b50505050905090810190601f1680156103915780820380516001836020036101000a031916815260200191505b509250505060206040518083038186803b1580156103ae57600080fd5b505af41580156103c2573d6000803e3d6000fd5b505050506040513d60208110156103d857600080fd5b8101908080519060200190929190505050600060026000836000191660001916815260200190815260200160002060020160009054906101000a900473ffffffffffffffffffffffffffffffffffffffff1673ffffffffffffffffffffffffffffffffffffffff1614151561044c57600080fd5b73__FileStoreLib__________________________635b6beeb9886040518263ffffffff167c01000000000000000000000000000000000000000000000000000000000281526004018080602001828103825283818151815260200191508051906020019080838360005b838110156104d25780820151818401526020810190506104b7565b50505050905090810190601f1680156104ff5780820380516001836020036101000a031916815260200191505b509250505060206040518083038186803b15801561051c57600080fd5b505af4158015610530573d6000803e3d6000fd5b505050506040513d602081101561054657600080fd5b8101908080519060200190929190505050935061056f6001600054610b0790919063ffffffff16565b600081905550600160003373ffffffffffffffffffffffffffffffffffffffff1673ffffffffffffffffffffffffffffffffffffffff168152602001908152602001600020805490509250600160003373ffffffffffffffffffffffffffffffffffffffff1673ffffffffffffffffffffffffffffffffffffffff168152602001908152602001600020849080600181540180825580915050906001820390600052602060002001600090919290919091509060001916905550600260008560001916600019168152602001908152602001600020915073__FileStoreLib__________________________6378e2e93983858a8a6040518563ffffffff167c0100000000000000000000000000000000000000000000000000000000028152600401808581526020018481526020018060200180602001838103835285818151815260200191508051906020019080838360005b838110156106df5780820151818401526020810190506106c4565b50505050905090810190601f16801561070c5780820380516001836020036101000a031916815260200191505b50838103825284818151815260200191508051906020019080838360005b8381101561074557808201518184015260208101905061072a565b50505050905090810190601f1680156107725780820380516001836020036101000a031916815260200191505b50965050505050505060006040518083038186803b15801561079357600080fd5b505af41580156107a7573d6000803e3d6000fd5b505050508294505050505092915050565b60008073__FileStoreLib__________________________635b6beeb9846040518263ffffffff167c01000000000000000000000000000000000000000000000000000000000281526004018080602001828103825283818151815260200191508051906020019080838360005b83811015610841578082015181840152602081019050610826565b50505050905090810190601f16801561086e5780820380516001836020036101000a031916815260200191505b509250505060206040518083038186803b15801561088b57600080fd5b505af415801561089f573d6000803e3d6000fd5b505050506040513d60208110156108b557600080fd5b8101908080519060200190929190505050905073__FileStoreLib__________________________630a34a7d36002600084600019166000191681526020019081526020016000206040518263ffffffff167c01000000000000000000000000000000000000000000000000000000000281526004018082815260200191505060206040518083038186803b15801561094d57600080fd5b505af4158015610961573d6000803e3d6000fd5b505050506040513d602081101561097757600080fd5b8101908080519060200190929190505050915050919050565b60005481565b600080600160008473ffffffffffffffffffffffffffffffffffffffff1673ffffffffffffffffffffffffffffffffffffffff16815260200190815260200160002080549050905080915050919050565b60008060006109f4610b25565b600160008773ffffffffffffffffffffffffffffffffffffffff1673ffffffffffffffffffffffffffffffffffffffff16815260200190815260200160002085815481101515610a4057fe5b90600052602060002001549150600260008360001916600019168152602001908152602001600020606060405190810160405290816000820154600019166000191681526020016001820154600019166000191681526020016002820160009054906101000a900473ffffffffffffffffffffffffffffffffffffffff1673ffffffffffffffffffffffffffffffffffffffff1673ffffffffffffffffffffffffffffffffffffffff16815250509050806000015181602001519350935050509250929050565b6000808284019050838110151515610b1b57fe5b8091505092915050565b6060604051908101604052806000801916815260200160008019168152602001600073ffffffffffffffffffffffffffffffffffffffff16815250905600a165627a7a72305820ddee181796690d1162b9b599dcb8aeafe653b891a6fa735955282ceaf9b4219b0029",
  "source": "pragma solidity ^0.4.17;\n\nimport \"./SafeMath.sol\";\n\n\n\nlibrary FileStoreLib {\n    struct File {\n      bytes32 ipfs;\n      bytes32 name;\n      address owner;\n    }\n    // ---------- Events --------------- //\n\n    event FileUploaded(address indexed owner,uint fileId,string name,string ipfshash);\n\n    function addHash(File storage f,uint _idFile,string _ipfs,string _name)\n             public {\n\tbytes32 fhash = getHash(_ipfs);\n\tbytes32 hashName = getHash(_name);\n        f.ipfs = fhash;\n        f.name = hashName;\n        f.owner = msg.sender;\n        emit FileUploaded(msg.sender,_idFile,_name,_ipfs);\n    }\n    // Get Hash from IPFS hash and address //\n    function getHash(string _str) public pure returns(bytes32){\n        bytes32 fhash = keccak256(abi.encodePacked(_str));\n        return(fhash);\n    }\n    function getFileOwner(File storage f) public view returns(address){\n      return(f.owner);\n    }\n}\n\ncontract FileStore2 {\n    // -------- Variables ----------- //\n    uint256 public totalFiles = 0;\n    using SafeMath for uint256;\n\n    mapping(address => bytes32[]) internal userFiles;\n    mapping(bytes32 => FileStoreLib.File) internal files;\n\n    // ----------- Functions ----------- //\n    // Modifiers //\n    modifier hasNotOwner(bytes32 _hash){\n\n        require(files[_hash].owner == 0);\n        _;\n    }\n\n    function addFile(string _ipfs,string _name)\n             public\n             hasNotOwner(FileStoreLib.getHash(_ipfs))\n             returns(uint){\n        bytes32 fhash = FileStoreLib.getHash(_ipfs);\n        totalFiles = totalFiles.add(1);\n        uint idFile = userFiles[msg.sender].length;\n        userFiles[msg.sender].push(fhash);\n        FileStoreLib.File storage f = files[fhash];\n        FileStoreLib.addHash(f,idFile,_ipfs,_name);\n        return(idFile);\n    }\n    function getFileOwner(string _ipfs) public view returns(address){\n      bytes32 fhash = FileStoreLib.getHash(_ipfs);\n      return(FileStoreLib.getFileOwner(files[fhash]));\n    }\n    function getUserFile(address _addr,uint256 _id) public view returns(bytes32,bytes32){\n      bytes32 fileHash = userFiles[_addr][_id];\n      FileStoreLib.File memory f = files[fileHash];\n      return(f.ipfs,f.name);\n    }\n    function getTotalUserFiles(address _addr) public view returns(uint256){\n      uint256 total = userFiles[_addr].length;\n      return(total);\n    } \n\n\n}\n\n\n\n/*  FileStore Contract should be not owned by anyone and will map an address to an array of\n  File Structure. Anyone can add ipfs hashes and a filename to the contract but only if that\n  ipfs hash has not been inserted in the contract to avoid multiple onwer of file\n*/\n\n\ncontract FileStore{\n    // -------- Variables ----------- //\n    uint256 public totalFiles = 0;\n    using SafeMath for uint256;\n    struct File {\n      bytes32 ipfs;\n      bytes32 name;\n      address owner;\n    }\n    mapping(address => bytes32[]) internal userFiles;\n    mapping(bytes32 => File) internal files;\n\n    // ---------- Events --------------- //\n\n    event FileUploaded(address indexed owner,uint fileId,string name,string ipfshash);\n\n    // ----------- Functions ----------- //\n    // Modifiers //\n    modifier hasNotOwner(bytes32 _hash){\n\n        require(files[_hash].owner == 0);\n        _;\n    }\n    // Add File (after uploading to ipfs //\n    function addFile(string _ipfs,string _name)\n             public\n             hasNotOwner(getHash(_ipfs))\n             returns(uint){\n        bytes32 fhash = getHash(_ipfs);\n        totalFiles = totalFiles.add(1);\n        uint idFile = userFiles[msg.sender].length;\n        userFiles[msg.sender].push(fhash);\n        File storage f = files[fhash];\n        f.ipfs = fhash;\n        f.name = getHash(_name);\n        f.owner = msg.sender;\n        emit FileUploaded(msg.sender,idFile,_name,_ipfs);\n        return(idFile);\n    }\n\n    function getFileOwner(string _ipfs) public view returns(address){\n      bytes32 fhash = getHash(_ipfs);\n      return(files[fhash].owner);\n    }\n    function getUserFile(address _addr,uint256 _id) public view returns(bytes32,bytes32){\n      bytes32 fileHash = userFiles[_addr][_id];\n      File memory f = files[fileHash];\n      return(f.ipfs,f.name);\n    }\n    function getTotalUserFiles(address _addr) public view returns(uint256){\n      uint256 total = userFiles[_addr].length;\n      return(total);\n    }\n    // Get Hash from IPFS hash and address //\n    function getHash(string _str) public pure returns(bytes32){\n        bytes32 fhash = keccak256(abi.encodePacked(_str));\n        return(fhash);\n    }\n    // Fallback function to return ether in case of sending ether to this contract //\n    function() public {\n        revert();\n    }\n\n}\n",
  "sourcePath": "/home/henrique/ethereum/final_project/contracts/FileStore_firstTry.sol",
  "compiler": {
    "name": "solc",
    "version": "0.4.24+commit.e67f0147.Emscripten.clang"
  },
  "schemaVersion": "2.0.1",
  "updatedAt": "2018-12-21T01:29:05.136Z"
}