{
  "contractName": "FileStoreLib",
  "abi": [
    {
      "anonymous": false,
      "inputs": [
        {
          "indexed": true,
          "name": "owner",
          "type": "address"
        },
        {
          "indexed": false,
          "name": "fileId",
          "type": "uint256"
        },
        {
          "indexed": false,
          "name": "name",
          "type": "string"
        },
        {
          "indexed": false,
          "name": "ipfshash",
          "type": "string"
        }
      ],
      "name": "FileUploaded",
      "type": "event"
    },
    {
      "constant": false,
      "inputs": [
        {
          "name": "f",
          "type": "FileStoreLib.File storage"
        },
        {
          "name": "_idFile",
          "type": "uint256"
        },
        {
          "name": "_ipfs",
          "type": "string"
        },
        {
          "name": "_name",
          "type": "string"
        }
      ],
      "name": "addHash",
      "outputs": [],
      "payable": false,
      "stateMutability": "nonpayable",
      "type": "function"
    },
    {
      "constant": true,
      "inputs": [
        {
          "name": "_str",
          "type": "string"
        }
      ],
      "name": "getHash",
      "outputs": [
        {
          "name": "",
          "type": "bytes32"
        }
      ],
      "payable": false,
      "stateMutability": "pure",
      "type": "function"
    },
    {
      "constant": true,
      "inputs": [
        {
          "name": "f",
          "type": "FileStoreLib.File storage"
        }
      ],
      "name": "getFileOwner",
      "outputs": [
        {
          "name": "",
          "type": "address"
        }
      ],
      "payable": false,
      "stateMutability": "view",
      "type": "function"
    }
  ],
  "bytecode": "0x6104eb610030600b82828239805160001a6073146000811461002057610022565bfe5b5030600052607381538281f300730000000000000000000000000000000000000000301460806040526004361061006e576000357c0100000000000000000000000000000000000000000000000000000000900463ffffffff1680630a34a7d3146100735780635b6beeb9146100d357806378e2e9391461014b575b600080fd5b6100916004803603810190808035906020019092919050505061020e565b604051808273ffffffffffffffffffffffffffffffffffffffff1673ffffffffffffffffffffffffffffffffffffffff16815260200191505060405180910390f35b61012d600480360381019080803590602001908201803590602001908080601f016020809104026020016040519081016040528093929190818152602001838380828437820191505050505050919291929050505061023c565b60405180826000191660001916815260200191505060405180910390f35b81801561015757600080fd5b5061020c6004803603810190808035906020019092919080359060200190929190803590602001908201803590602001908080601f0160208091040260200160405190810160405280939291908181526020018383808284378201915050505050509192919290803590602001908201803590602001908080601f0160208091040260200160405190810160405280939291908181526020018383808284378201915050505050509192919290505050610319565b005b60008160020160009054906101000a900473ffffffffffffffffffffffffffffffffffffffff169050919050565b600080826040516020018082805190602001908083835b6020831015156102785780518252602082019150602081019050602083039250610253565b6001836020036101000a0380198251168184511680821785525050505050509050019150506040516020818303038152906040526040518082805190602001908083835b6020831015156102e157805182526020820191506020810190506020830392506102bc565b6001836020036101000a0380198251168184511680821785525050505050509050019150506040518091039020905080915050919050565b6000806103258461023c565b91506103308361023c565b90508186600001816000191690555080866001018160001916905550338660020160006101000a81548173ffffffffffffffffffffffffffffffffffffffff021916908373ffffffffffffffffffffffffffffffffffffffff1602179055503373ffffffffffffffffffffffffffffffffffffffff167f931a47dbf66bf525c4f6017aa076b195a2dbc0f5ce1038738322cf763ecc0232868587604051808481526020018060200180602001838103835285818151815260200191508051906020019080838360005b838110156104145780820151818401526020810190506103f9565b50505050905090810190601f1680156104415780820380516001836020036101000a031916815260200191505b50838103825284818151815260200191508051906020019080838360005b8381101561047a57808201518184015260208101905061045f565b50505050905090810190601f1680156104a75780820380516001836020036101000a031916815260200191505b509550505050505060405180910390a25050505050505600a165627a7a723058209c7ce56aa5fc73fd63af3d29940816964fffb33ad9a4aef56ea45abc8abd6e810029",
  "source": "pragma solidity ^0.4.17;\n\n\n/** @title FileStoreLib.\n  * @dev The FileStoreLib is a library that should be used to facilitate and reduce gas cost of    \n  * referring an file stored in IPFS to an wallet\n  */\nlibrary FileStoreLib {\n    \n    struct File {\n      bytes32 ipfs;\n      bytes32 name;\n      address owner;\n    }\n \n    event FileUploaded(address indexed owner,uint fileId,string name,string ipfshash);\n \n    /** @dev Allow an wallet to refer some IPFS hash to itself \n      * @param f File struct.\n      * @param _idFile Uint that is used as id.\n      * @param _ipfs IPFS hash generated when adding file in IPFS.\n      * @param _name String that user has used to name the content in IPFS.\n      */\n\n    function addHash(File storage f,uint _idFile,string _ipfs,string _name)\n             public {\n\tbytes32 fhash = getHash(_ipfs);\n\tbytes32 hashName = getHash(_name);\n        f.ipfs = fhash;\n        f.name = hashName;\n        f.owner = msg.sender;\n\temit FileUploaded(msg.sender,_idFile,_name,_ipfs);\n\n    }\n\n\n    /** @dev Return the bytes32 keccak256 hash from an string\n      * @param _str The string that will be transformed into bytes32.\n      * @return bytes32 Hash of the string.\n      */\n    function getHash(string _str) public pure returns(bytes32){\n        bytes32 fhash = keccak256(abi.encodePacked(_str));\n        return(fhash);\n    } \n    /** @dev Get an owner of some file.\n      * @param f File struct.\n      * @return address The owner of the file.\n      */\n    function getFileOwner(File storage f) public view returns(address){\n      return(f.owner);\n    }\n}\n\n",
  "sourcePath": "/home/henrique/ethereum/final_project/contracts/FileStoreLib.sol",
  "compiler": {
    "name": "solc",
    "version": "0.4.24+commit.e67f0147.Emscripten.clang"
  },
  "schemaVersion": "2.0.1",
  "updatedAt": "2019-01-16T21:53:29.406Z"
}